:1000000009C018951895189518951895189518956C
:10001000189518958FE98DBFC0E9E3E94E2EDD27CD
:100020005D2EA89584B7082E877F84BF88E1992725
:1000300081BD91BDEEE3F0E0A0E6B0E088278D93AE
:100040003197E9F76624BB9AC39AB998C19ABC98CC
:1000500083E886B980E087B9379A80E090E0A0E62F
:100060008D939C93B19907C080E090E0A0E68D93BA
:100070009C93C39A1AC007B10C7F026007B92ED0B7
:10008000A2E68D939C9393E0A2E631D0A0E64D9139
:100090005C91A2E60D911C910417150710F009F070
:1000A00001C0C39888EE93E00AD0DCCF3197F1F716
:1000B0000895689462F80895E89462F80895EF93BB
:1000C000FF93EE27E82BE92B31F0ECE2F1E03197DA
:1000D000F1F70197D1F7FF91EF910895369A36998C
:1000E000FECF369A3699FECF84B195B108959030FF
:1000F00041F00D911C91000F111F9A95E1F71C938F
:040100000E930895BD
:00000001FF
